:020000040800F2
:1000000000800120850E0008D70E0008E50E0008CC
:10001000EB0E0008F10E0008F70E000800000000CB
:10002000000000000000000000000000FD0E0008BD
:100030000B0F000800000000190F0008270F000830
:10004000D50E0008D50E0008D50E0008D50E000804
:10005000D50E0008D50E0008FD090008210A000889
:10006000450A0008D50E0008D50E0008D50E000878
:10007000D50E0008D50E0008D50E0008D50E0008D4
:10008000D50E0008D50E0008D50E0008D50E0008C4
:10009000D50E0008D50E0008D50E0008D50E0008B4
:1000A000D50E0008D50E0008D50E0008190B000863
:1000B000D50E0008D50E0008D50E0008D50E000894
:1000C000D50E0008D50E0008D50E0008D50E000884
:1000D000D50E0008D50E0008D50E0008D50E000874
:1000E000690A0008D50E0008D50E0008D50E0008D4
:1000F000D50E0008D50E0008D50E0008D50E000854
:10010000D50E0008D50E0008D50E0008D50E000843
:10011000D50E0008D50E0008D50E0008D50E000833
:10012000D50E0008D50E0008D50E0008D50E000823
:10013000D50E0008D50E0008D50E0008D50E000813
:10014000D50E0008D50E0008D50E0008D50E000803
:10015000D50E0008D50E0008D50E0008D50E0008F3
:10016000D50E0008D50E0008D50E0008D50E0008E3
:10017000D50E0008D50E0008D50E0008D50E0008D3
:08018000D50E0008D50E0008A1
:1001880010B5054C237833B9044B13B10448AFF3C9
:1001980000800123237010BD14000020000000001F
:1001A800D811000808B5034B1BB103490348AFF346
:1001B800008008BD0000000018000020D8110008C9
:1001C80081F0004102E000BF83F0004330B54FEA00
:1001D80041044FEA430594EA050F08BF90EA020F6D
:1001E8001FBF54EA000C55EA020C7FEA645C7FEA00
:1001F800655C00F0E2804FEA5454D4EB5555B8BF23
:100208006D420CDD2C4480EA020281EA030382EA93
:10021800000083EA010180EA020281EA0303362D25
:1002280088BF30BD11F0004F4FEA01314FF4801CF8
:100238004CEA113102D0404261EB410113F0004F0A
:100248004FEA03334CEA133302D0524263EB4303C1
:1002580094EA050F00F0A780A4F10104D5F1200E5F
:100268000DDB02FA0EFC22FA05F2801841F10001BA
:1002780003FA0EF2801843FA05F359410EE0A5F18E
:1002880020050EF1200E012A03FA0EFC28BF4CF0BF
:10029800020C43FA05F3C01851EBE37101F0004575
:1002A80007D54FF0000EDCF1000C7EEB00006EEB82
:1002B8000101B1F5801F1BD3B1F5001F0CD349080C
:1002C8005FEA30004FEA3C0C04F101044FEA445263
:1002D80012F5800F80F09A80BCF1004F08BF5FEAEA
:1002E800500C50F1000041EB045141EA050130BDCA
:1002F8005FEA4C0C404141EB010111F4801FA4F16D
:100308000104E9D191F0000F04BF01460020B1FAC1
:1003180081F308BF2033A3F10B03B3F120020CDAF9
:100328000C3208DD02F1140CC2F10C0201FA0CF0D7
:1003380021FA02F10CE002F11402D8BFC2F1200C3C
:1003480001FA02F120FA0CFCDCBF41EA0C019040F2
:10035800E41AA2BF01EB0451294330BD6FEA04043B
:100368001F3C1CDA0C340EDC04F11404C4F1200226
:1003780020FA04F001FA02F340EA030021FA04F338
:1003880045EA030130BDC4F10C04C4F1200220FA8F
:1003980002F001FA04F340EA0300294630BD21FACD
:1003A80004F0294630BD94F0000F83F4801306BF93
:1003B80081F480110134013D4EE77FEA645C18BF87
:1003C8007FEA655C29D094EA050F08BF90EA020F1E
:1003D80005D054EA000C04BF1946104630BD91EA16
:1003E800030F1EBF0021002030BD5FEA545C05D119
:1003F8004000494128BF41F0004130BD14F5800458
:100408003CBF01F5801130BD01F0004545F0FE41CB
:1004180041F470014FF0000030BD7FEA645C1ABF00
:10042800194610467FEA655C1CBF0B46024650EA37
:10043800013406BF52EA033591EA030F41F4002163
:1004480030BD00BF90F0000F04BF0021704730B5E9
:100458004FF4806404F132044FF000054FF00001BE
:1004680050E700BF90F0000F04BF0021704730B57F
:100478004FF4806404F1320410F0004548BF404254
:100488004FF000013EE700BF42004FEAE2014FEAA9
:1004980031014FEA02701FBF12F07F4393F07F4F84
:1004A80081F06051704792F0000F14BF93F07F4FB6
:1004B800704730B54FF4607401F0004521F00041F9
:1004C80020E700BF50EA010208BF704730B54FF07F
:1004D80000050AE050EA010208BF704730B511F084
:1004E800004502D5404261EB41014FF4806404F1BC
:1004F80032045FEA915C3FF4DCAE4FF003025FEA3E
:10050800DC0C18BF03325FEADC0C18BF033202EBC5
:10051800DC02C2F1200300FA03FC20FA02F001FA1F
:1005280003FE40EA0E0021FA02F11444C1E600BFBE
:1005380070B54FF0FF0C4CF4E06C1CEA11541DBF71
:100548001CEA135594EA0C0F95EA0C0F00F0DEF83C
:100558002C4481EA030621EA4C5123EA4C5350EA21
:10056800013518BF52EA033541F4801143F4801372
:1005780038D0A0FB02CE4FF00005E1FB02E506F003
:100588000042E0FB03E54FF00006E1FB03569CF058
:10059800000F18BF4EF0010EA4F1FF04B6F5007F5E
:1005A80064F5407404D25FEA4E0E6D4146EB0606D0
:1005B80042EAC62141EA55514FEAC52040EA5E5059
:1005C8004FEACE2EB4F1FD0C88BFBCF5E06F1ED803
:1005D800BEF1004F08BF5FEA500E50F1000041EB3A
:1005E800045170BD06F0004646EA010140EA0200E7
:1005F80081EA0301B4EB5C04C2BFD4EB0C0541EA09
:10060800045170BD41F480114FF0000E013C00F31D
:10061800AB8014F1360FDEBF002001F0004170BD41
:10062800C4F10004203C35DA0C341BDC04F114045A
:10063800C4F1200500FA05F320FA04F001FA05F2E6
:1006480040EA020001F0004221F0004110EBD370B3
:1006580021FA04F642EB06015EEA430E08BF20EADF
:10066800D37070BDC4F10C04C4F1200500FA04F382
:1006780020FA05F001FA04F240EA020001F0004114
:1006880010EBD37041F100015EEA430E08BF20EA87
:10069800D37070BDC4F1200500FA05F24EEA020ECF
:1006A80020FA04F301FA05F243EA020321FA04F0FE
:1006B80001F0004121FA04F220EA020000EBD370B5
:1006C8005EEA430E08BF20EAD37070BD94F0000FB5
:1006D8000FD101F00046400041EB010111F4801FE9
:1006E80008BF013CF7D041EA060195F0000F18BF9A
:1006F800704703F00046520043EB030313F4801FD6
:1007080008BF013DF7D043EA0603704794EA0C0F8F
:100718000CEA135518BF95EA0C0F0CD050EA4106A5
:1007280018BF52EA4306D1D181EA030101F0004122
:100738004FF0000070BD50EA410606BF104619464A
:1007480052EA430619D094EA0C0F02D150EA013656
:1007580013D195EA0C0F05D152EA03361CBF104697
:1007680019460AD181EA030101F0004141F0FE4136
:1007780041F470014FF0000070BD41F0FE4141F4BA
:10078800780170BD70B54FF0FF0C4CF4E06C1CEABA
:1007980011541DBF1CEA135594EA0C0F95EA0C0F6F
:1007A80000F0A7F8A4EB050481EA030E52EA03352A
:1007B8004FEA013100F088804FEA03334FF080554B
:1007C80045EA131343EA12634FEA022245EA111578
:1007D80045EA10654FEA00260EF000419D4208BF29
:1007E800964244F1FD0404F5407402D25B084FEAD6
:1007F8003202B61A65EB03055B084FEA32024FF482
:1008080080104FF4002CB6EB020E75EB030E22BFDE
:10081800B61A754640EA0C005B084FEA3202B6EB9E
:10082800020E75EB030E22BFB61A754640EA5C004D
:100838005B084FEA3202B6EB020E75EB030E22BFDD
:10084800B61A754640EA9C005B084FEA3202B6EBDE
:10085800020E75EB030E22BFB61A754640EADC009D
:1008680055EA060E18D04FEA051545EA16754FEAFF
:1008780006164FEAC30343EA52734FEAC2025FEA1D
:100888001C1CC0D111F4801F0BD141EA00014FF0AC
:1008980000004FF0004CB6E711F4801F04BF01437D
:1008A8000020B4F1FD0C88BFBCF5E06F3FF6AFAE99
:1008B800B5EB030C04BFB6EB020C5FEA500C50F129
:1008C800000041EB045170BD0EF0004E4EEA1131AC
:1008D80014EB5C04C2BFD4EB0C0541EA045170BDB3
:1008E80041F480114FF0000E013C90E645EA060EF7
:1008F8008DE60CEA135594EA0C0F08BF95EA0C0F25
:100908003FF43BAF94EA0C0F0AD150EA01347FF46C
:1009180034AF95EA0C0F7FF425AF104619462CE743
:1009280095EA0C0F06D152EA03353FF4FDAE1046A6
:10093800194622E750EA410618BF52EA43067FF4F7
:10094800C5AE50EA41047FF40DAF52EA43057FF487
:10095800EBAE12E74FEA4102B2F1E04324BFB3F530
:10096800001CDCF1FE5C0DD901F0004C4FEAC0021E
:100978004CEA5070B2F1004F40EB830008BF20F002
:100988000100704711F0804F21D113F13872BCBFBC
:1009980001F00040704741F480114FEA5252C2F111
:1009A8001802C2F1200C10FA0CF320FA02F018BF5A
:1009B80040F001004FEAC1234FEAD32303FA0CFCAD
:1009C80040EA0C0023FA02F34FEA4303CCE77FEA3C
:1009D800625307D150EA01331EBF4FF0FE4040F486
:1009E8004000704701F0004040F0FE4040F4000035
:1009F800704700BF80B500AF054A054B5B6943F0FF
:100A080001035361034B1B68984700BF80BD00BFBB
:100A1800003C01404800002080B500AF054A054B66
:100A28005B6943F002035361034B1B68984700BF9F
:100A380080BD00BF003C01403C00002080B500AFF5
:100A4800054A054B5B6943F004035361034B1B687C
:100A5800984700BF80BD00BF003C01404000002017
:100A680080B500AF104B5B6903F40063002B09D01D
:100A78000D4A0D4B5B6943F4006353610B4B1B68D4
:100A880098470EE0084B5B6903F48053002B08D0AD
:100A9800054A054B5B6943F480535361044B1B685B
:100AA800984700BF80BD00BF003C014044000020C3
:100AB8003800002080B400AF124A124B1B6843F084
:100AC800010313600F4B00229A600E4A0D4B1B68FE
:100AD80023F0A16323F4803313600A4B0A4A5A6057
:100AE800084B0A4AC3F88420064A064B1B6823F4BD
:100AF80080231360034B0022DA6000BFBD465DF817
:100B0800047B704700380240103000240030002079
:100B180080B400AF0F4A0F4B1B8A9BB223F002032D
:100B28009BB213820C4B1B68002B06D1094B002289
:100B38005A62094B01221A6006E0064B5B6B074AB2
:100B48001360054B00221A6000BFBD465DF8047BA8
:100B5800704700BF00000140340000203000002032
:100B6800B0B584B000AF7860454A454B1B6B43F085
:100B780001031363434A434B1B6823F0300313609C
:100B8800404A404B1B6823F0C00313603D4A3D4B6D
:100B98001B6843F0200313603A4A3A4B1B6843F042
:100BA80080031360374A374B1B6A23F47063136260
:100BB800344A344B1B6A23F470431362314A314B75
:100BC8001B6A43F4E06313622E4A2E4B1B6A43F4FC
:100BD800E04313622A4A2A4B1B6C43F40033136424
:100BE800294B1B681846FFF72DFC04460D4678680C
:100BF800FFF728FC4FF00002244BFFF799FC024650
:100C08000B4620462946FFF7BDFD03460C4618460D
:100C18002146FFF79FFE0346FB60D7ED037AFCEE03
:100C2800E77AC7ED007A3B887B817B8907EE903AAB
:100C3800F8EEE77A97ED037A77EE677AB3EE007A03
:100C480067EE877AFCEEE77AC7ED007A3B787B722D
:100C58000F497B891B019AB27B7A9BB213449BB2E2
:100C68000B810B4A0A4B9B899BB243F4005343F018
:100C78000C039BB2938100BF1037BD46B0BD00BFC7
:100C88000038024000000240000000200000304010
:100C98000044004080B483B000AF0346FB7100BF3E
:100CA800084B1B889BB203F08003002BF8D0054B40
:100CB800FA7992B29A8000BF0C37BD465DF8047B82
:100CC800704700BF0044004080B584B000AF786032
:100CD8000023FB6009E07A68FB6813441B78184618
:100CE800FFF7D8FFFB680133FB607A68FB681344A1
:100CF8001B78002BEFD100BF1037BD4680BD80B5F3
:100D080084B000AF786039600023FB6009E07A683E
:100D1800FB6813441B781846FFF7BCFFFB680133D8
:100D2800FB60FA683B689A42F1D300BF1037BD46B2
:100D380080BD000080B485B000AF78600023FB73ED
:100D48000A4B1B889BB203F02003002B07D0074BEC
:100D58009B889BB2DAB27B681A700123FB73FB7B1A
:100D680018461437BD465DF8047B704700440040C0
:100D780080B586B000AFF860B9607A600023FB7573
:100D88000023BB7500233B6112E0FB7DFA68134426
:100D98001846FFF7CFFF0346002B03D0FB7D013336
:100DA800FB7505E03B6901333B61012000F016F853
:100DB800FA7DBB689A4203D23A697B689A42E4D3C7
:100DC8003A697B689A4202D20123BB7501E000238D
:100DD800BB75BB7D18461837BD4680BD80B485B04D
:100DE80000AF78600023FB600023BB600023FB603A
:100DF8000EE00023BB6003E000BFBB680133BB60AB
:100E0800BB6840F2E1429342F6D9FB680133FB60CC
:100E1800FA687B689A42ECD300BF1437BD465DF888
:100E2800047B704780B59AB000AF002387F867301D
:100E3800FFF740FE00F0B0F8002387F866304FF463
:100E48001650FFF78DFE3B4642F2107205211846F8
:100E5800FFF78EFF0346002B08D00648FFF734FF44
:100E68003B4605211846FFF74AFF02E00248FFF714
:100E78002BFFFEE7F0110008FC110008DFF834D062
:100E8800002103E00C4B5B58435004310B480C4BDA
:100E980042189A42F6D30B4A02E0002342F8043B78
:100EA800094B9A42F9D300F041F800F06DF9FFF7C9
:100EB800B9FF7047008001201012000800000020D0
:100EC80014000020140000204C000020FEE780B42D
:100ED80000AF00BFBD465DF8047B704780B400AF2B
:100EE800FEE780B400AFFEE780B400AFFEE780B451
:100EF80000AFFEE780B400AF00BFBD465DF8047BDD
:100F0800704780B400AF00BFBD465DF8047B7047F2
:100F180080B400AF00BFBD465DF8047B704780B465
:100F280000AF00BFBD465DF8047B704780B500AFD9
:100F3800164A164BD3F8883043F47003C2F8883049
:100F4800134A134B1B6843F001031360104B002234
:100F58009A600F4A0E4B1B6823F0847323F4803386
:100F680013600B4B0B4A5A60094A094B1B6823F460
:100F780080231360064B0022DA6000F089F8034BE7
:100F88004FF000629A6000BF80BD00BF00ED00E036
:100F9800003802401030002480B487B000AF00232E
:100FA8003B6100237B610223FB600023BB600223BB
:100FB8007B60324B9B6803F00C033B613B69042B5D
:100FC80007D0082B09D0002B3DD12D4B2D4A1A6094
:100FD8003DE02B4B2C4A1A6039E0284B5B689B0D8F
:100FE80003F00103BB60254B5B6803F03F037B60A4
:100FF800BB68002B0CD0244A7B68B2FBF3F31F4A72
:1010080052689209C2F3080202FB03F37B610BE00A
:101018001C4A7B68B2FBF3F3184A52689209C2F380
:10102800080202FB03F37B61144B5B681B0C03F0A3
:10103800030301335B00FB607A69FB68B2FBF3F3DF
:101048000F4A136003E00E4B0E4A1A6000BF0B4BA9
:101058009B681B0903F00F030C4AD35CDBB23B61AE
:10106800074B1A683B6922FA03F3054A136000BF6D
:101078001C37BD465DF8047B704700BF003802404E
:10108800000000200024F40040787D0104000020C6
:1010980080B483B000AF00237B6000233B60364AF6
:1010A800354B1B6843F480331360334B1B6803F4E0
:1010B80000333B607B6801337B603B68002B03D1C6
:1010C8007B68B3F5A06FF0D12B4B1B6803F400339A
:1010D800002B02D001233B6001E000233B603B680A
:1010E800012B42D1244A244B1B6C43F080531364D8
:1010F800224A224B1B6843F4404313601E4A1E4B8E
:101108009B6893601C4A1C4B9B6843F400439360A4
:10111800194A194B9B6843F4A0539360164B184A1D
:101128005A60154A144B1B6843F08073136000BF64
:10113800114B1B6803F00073002BF9D0114B40F2E0
:1011480005721A600C4A0C4B9B6823F003039360EA
:10115800094A094B9B6843F00203936000BF064BA2
:101168009B6803F00C03082BF9D100BF0C37BD4670
:101178005DF8047B704700BF0038024000700040F3
:1011880019544007003C024070B50D4E0D4CA41B8D
:10119800A4100025A54209D10B4E0C4C00F018F8FC
:1011A800A41BA4100025A54205D170BD56F8253012
:1011B80098470135EEE756F8253098470135F2E7AC
:1011C8000812000808120008081200080C1200088B
:1011D800F8B500BFF8BC08BC9E467047F8B500BF1C
:0811E800F8BC08BC9E467047EC
:1011F0000A525820646174613A200A000A20746916
:081200006D656F75740A0000B2
:04120800AD0100082C
:04120C00890100084C
:10121000007A030A0000000000000000010203043D
:0412200006070809AC
:0400000508000E855C
:00000001FF
